{
  "contractName": "Report",
  "abi": [
    {
      "inputs": [],
      "name": "viewReports",
      "outputs": [
        {
          "components": [
            {
              "internalType": "uint256",
              "name": "timestamp",
              "type": "uint256"
            },
            {
              "internalType": "string",
              "name": "crimetype",
              "type": "string"
            },
            {
              "internalType": "string",
              "name": "location",
              "type": "string"
            },
            {
              "internalType": "string",
              "name": "severity",
              "type": "string"
            },
            {
              "internalType": "string",
              "name": "message",
              "type": "string"
            },
            {
              "internalType": "address",
              "name": "from",
              "type": "address"
            },
            {
              "internalType": "bool",
              "name": "solved",
              "type": "bool"
            }
          ],
          "internalType": "struct Report.report[]",
          "name": "",
          "type": "tuple[]"
        }
      ],
      "stateMutability": "view",
      "type": "function",
      "constant": true
    },
    {
      "inputs": [],
      "name": "LoginAsAdmin",
      "outputs": [
        {
          "internalType": "bool",
          "name": "",
          "type": "bool"
        }
      ],
      "stateMutability": "view",
      "type": "function",
      "constant": true
    },
    {
      "inputs": [
        {
          "internalType": "string",
          "name": "_crimetype",
          "type": "string"
        },
        {
          "internalType": "string",
          "name": "_location",
          "type": "string"
        },
        {
          "internalType": "string",
          "name": "_message",
          "type": "string"
        },
        {
          "internalType": "string",
          "name": "_severity",
          "type": "string"
        }
      ],
      "name": "ReportCrime",
      "outputs": [],
      "stateMutability": "nonpayable",
      "type": "function"
    }
  ],
  "bytecode": "0x6080604052604051806040016040528073d19c77555f21f7eaa48dd820b60bde55dc6985d973ffffffffffffffffffffffffffffffffffffffff1673ffffffffffffffffffffffffffffffffffffffff168152602001731f9d23e204b56e4b0dd9091d2baa2b691e67dc1673ffffffffffffffffffffffffffffffffffffffff1673ffffffffffffffffffffffffffffffffffffffff1681525060019060026100a99291906100bc565b503480156100b657600080fd5b50610156565b8260028101928215610128579160200282015b828111156101275782518260006101000a81548173ffffffffffffffffffffffffffffffffffffffff021916908373ffffffffffffffffffffffffffffffffffffffff160217905550916020019190600101906100cf565b5b5090506101359190610139565b5090565b5b8082111561015257600081600090555060010161013a565b5090565b610d9c806101656000396000f3fe608060405234801561001057600080fd5b506004361061005e576000357c01000000000000000000000000000000000000000000000000000000009004806312beb00f146100635780631ac03071146100815780638392c50f1461009d575b600080fd5b61006b6100bb565b6040516100789190610975565b60405180910390f35b61009b60048036038101906100969190610ae0565b6103dd565b005b6100a56105b1565b6040516100b29190610bc6565b60405180910390f35b60606000805480602002602001604051908101604052809291908181526020016000905b828210156103d457838290600052602060002090600602016040518060e00160405290816000820154815260200160018201805461011c90610c10565b80601f016020809104026020016040519081016040528092919081815260200182805461014890610c10565b80156101955780601f1061016a57610100808354040283529160200191610195565b820191906000526020600020905b81548152906001019060200180831161017857829003601f168201915b505050505081526020016002820180546101ae90610c10565b80601f01602080910402602001604051908101604052809291908181526020018280546101da90610c10565b80156102275780601f106101fc57610100808354040283529160200191610227565b820191906000526020600020905b81548152906001019060200180831161020a57829003601f168201915b5050505050815260200160038201805461024090610c10565b80601f016020809104026020016040519081016040528092919081815260200182805461026c90610c10565b80156102b95780601f1061028e576101008083540402835291602001916102b9565b820191906000526020600020905b81548152906001019060200180831161029c57829003601f168201915b505050505081526020016004820180546102d290610c10565b80601f01602080910402602001604051908101604052809291908181526020018280546102fe90610c10565b801561034b5780601f106103205761010080835404028352916020019161034b565b820191906000526020600020905b81548152906001019060200180831161032e57829003601f168201915b505050505081526020016005820160009054906101000a900473ffffffffffffffffffffffffffffffffffffffff1673ffffffffffffffffffffffffffffffffffffffff1673ffffffffffffffffffffffffffffffffffffffff1681526020016005820160149054906101000a900460ff161515151581525050815260200190600101906100df565b50505050905090565b600073ffffffffffffffffffffffffffffffffffffffff163373ffffffffffffffffffffffffffffffffffffffff16141561044d576040517f08c379a000000000000000000000000000000000000000000000000000000000815260040161044490610c9f565b60405180910390fd5b60006040518060e001604052804281526020018681526020018581526020018381526020018481526020013373ffffffffffffffffffffffffffffffffffffffff1681526020016000151581525090806001815401808255809150506001900390600052602060002090600602016000909190919091506000820151816000015560208201518160010190805190602001906104ea929190610651565b506040820151816002019080519060200190610507929190610651565b506060820151816003019080519060200190610524929190610651565b506080820151816004019080519060200190610541929190610651565b5060a08201518160050160006101000a81548173ffffffffffffffffffffffffffffffffffffffff021916908373ffffffffffffffffffffffffffffffffffffffff16021790555060c08201518160050160146101000a81548160ff021916908315150217905550505050505050565b600080600090505b6002811015610648573373ffffffffffffffffffffffffffffffffffffffff16600182600281106105ed576105ec610cbf565b5b0160009054906101000a900473ffffffffffffffffffffffffffffffffffffffff1673ffffffffffffffffffffffffffffffffffffffff16141561063557600191505061064e565b808061064090610d1d565b9150506105b9565b50600090505b90565b82805461065d90610c10565b90600052602060002090601f01602090048101928261067f57600085556106c6565b82601f1061069857805160ff19168380011785556106c6565b828001600101855582156106c6579182015b828111156106c55782518255916020019190600101906106aa565b5b5090506106d391906106d7565b5090565b5b808211156106f05760008160009055506001016106d8565b5090565b600081519050919050565b600082825260208201905092915050565b6000819050602082019050919050565b6000819050919050565b61073381610720565b82525050565b600081519050919050565b600082825260208201905092915050565b60005b83811015610773578082015181840152602081019050610758565b83811115610782576000848401525b50505050565b6000601f19601f8301169050919050565b60006107a482610739565b6107ae8185610744565b93506107be818560208601610755565b6107c781610788565b840191505092915050565b600073ffffffffffffffffffffffffffffffffffffffff82169050919050565b60006107fd826107d2565b9050919050565b61080d816107f2565b82525050565b60008115159050919050565b61082881610813565b82525050565b600060e083016000830151610846600086018261072a565b506020830151848203602086015261085e8282610799565b915050604083015184820360408601526108788282610799565b915050606083015184820360608601526108928282610799565b915050608083015184820360808601526108ac8282610799565b91505060a08301516108c160a0860182610804565b5060c08301516108d460c086018261081f565b508091505092915050565b60006108eb838361082e565b905092915050565b6000602082019050919050565b600061090b826106f4565b61091581856106ff565b93508360208202850161092785610710565b8060005b85811015610963578484038952815161094485826108df565b945061094f836108f3565b925060208a0199505060018101905061092b565b50829750879550505050505092915050565b6000602082019050818103600083015261098f8184610900565b905092915050565b6000604051905090565b600080fd5b600080fd5b600080fd5b600080fd5b7f4e487b7100000000000000000000000000000000000000000000000000000000600052604160045260246000fd5b6109ed82610788565b810181811067ffffffffffffffff82111715610a0c57610a0b6109b5565b5b80604052505050565b6000610a1f610997565b9050610a2b82826109e4565b919050565b600067ffffffffffffffff821115610a4b57610a4a6109b5565b5b610a5482610788565b9050602081019050919050565b82818337600083830152505050565b6000610a83610a7e84610a30565b610a15565b905082815260208101848484011115610a9f57610a9e6109b0565b5b610aaa848285610a61565b509392505050565b600082601f830112610ac757610ac66109ab565b5b8135610ad7848260208601610a70565b91505092915050565b60008060008060808587031215610afa57610af96109a1565b5b600085013567ffffffffffffffff811115610b1857610b176109a6565b5b610b2487828801610ab2565b945050602085013567ffffffffffffffff811115610b4557610b446109a6565b5b610b5187828801610ab2565b935050604085013567ffffffffffffffff811115610b7257610b716109a6565b5b610b7e87828801610ab2565b925050606085013567ffffffffffffffff811115610b9f57610b9e6109a6565b5b610bab87828801610ab2565b91505092959194509250565b610bc081610813565b82525050565b6000602082019050610bdb6000830184610bb7565b92915050565b7f4e487b7100000000000000000000000000000000000000000000000000000000600052602260045260246000fd5b60006002820490506001821680610c2857607f821691505b60208210811415610c3c57610c3b610be1565b5b50919050565b600082825260208201905092915050565b7f496e76616c696420416464726573730000000000000000000000000000000000600082015250565b6000610c89600f83610c42565b9150610c9482610c53565b602082019050919050565b60006020820190508181036000830152610cb881610c7c565b9050919050565b7f4e487b7100000000000000000000000000000000000000000000000000000000600052603260045260246000fd5b7f4e487b7100000000000000000000000000000000000000000000000000000000600052601160045260246000fd5b6000610d2882610720565b91507fffffffffffffffffffffffffffffffffffffffffffffffffffffffffffffffff821415610d5b57610d5a610cee565b5b60018201905091905056fea2646970667358221220b79187a4bbb7e5b22e2f27664c02695d652b4d9af50c20ced211ccbd8812018364736f6c634300080c0033",
  "immutableReferences": {},
  "source": "// SPDX-License-Identifier: MIT\r\n\r\npragma solidity ^0.8.12;\r\n\r\n//0xe9a9baa843605876f95eed6DF8230f7314F7cE91\r\n\r\ncontract Report{\r\n\r\n    struct report{\r\n        uint timestamp;\r\n        string crimetype;\r\n        string location;\r\n        string severity;\r\n        string message;\r\n        address from;\r\n        bool solved;\r\n    }\r\n    report[] Reports;\r\n\r\n    function viewReports() public view returns(report[] memory){\r\n        return Reports;\r\n    }\r\n\r\n    address[2] adminId = [0xd19C77555F21F7eaa48Dd820B60BDe55DC6985d9,0x1F9d23e204B56E4b0DD9091d2BAa2B691e67dc16];\r\n    \r\n    function LoginAsAdmin() public view returns(bool){\r\n        for (uint i = 0; i < adminId.length; i++) {\r\n            if (adminId[i] == msg.sender) {\r\n                return true;\r\n            }\r\n        }\r\n        return false;\r\n    }\r\n\r\n    modifier isPeople(){\r\n        require(msg.sender != address(0),\"Invalid Address\");\r\n        _;\r\n    }\r\n\r\n    function ReportCrime(string memory _crimetype, string memory _location, string memory _message, string memory _severity) public isPeople {\r\n        Reports.push(report(block.timestamp,_crimetype,_location,_severity,_message,msg.sender,false));\r\n    }\r\n}\r\n",
  "sourcePath": "C:\\Users\\Main\\Crime-Reporting-Dapp\\contracts\\Report.sol",
  "compiler": {
    "name": "solc",
    "version": "0.8.12+commit.f00d7308.Emscripten.clang"
  },
  "schemaVersion": "3.4.16",
  "updatedAt": "2025-04-28T13:05:22.428Z",
  "networkType": "ethereum",
  "devdoc": {
    "kind": "dev",
    "methods": {},
    "version": 1
  },
  "userdoc": {
    "kind": "user",
    "methods": {},
    "version": 1
  }
}